{"abi":[{"type":"constructor","inputs":[],"stateMutability":"nonpayable"},{"type":"function","name":"appData","inputs":[],"outputs":[{"name":"stateMachineHash","type":"bytes32","internalType":"bytes32"},{"name":"genesisStateHash","type":"bytes32","internalType":"bytes32"}],"stateMutability":"view"},{"type":"function","name":"appId","inputs":[],"outputs":[{"name":"","type":"uint256","internalType":"uint256"}],"stateMutability":"view"},{"type":"function","name":"batchBySequenceNumber","inputs":[{"name":"","type":"uint256","internalType":"uint256"}],"outputs":[{"name":"batchRoot","type":"bytes32","internalType":"bytes32"},{"name":"blocksRoot","type":"bytes32","internalType":"bytes32"},{"name":"daPointer","type":"tuple","internalType":"struct IAppInbox.BlobPointer","components":[{"name":"blobID","type":"bytes","internalType":"bytes"},{"name":"da","type":"uint8","internalType":"enum IAppInbox.DAProvider"}]},{"name":"lastBlockHeight","type":"uint256","internalType":"uint256"},{"name":"lastBlockHash","type":"bytes32","internalType":"bytes32"},{"name":"stateRoot","type":"bytes32","internalType":"bytes32"}],"stateMutability":"view"},{"type":"function","name":"bridgeContract","inputs":[],"outputs":[{"name":"","type":"address","internalType":"address"}],"stateMutability":"view"},{"type":"function","name":"createTicket","inputs":[{"name":"_identifier","type":"bytes32","internalType":"bytes32"},{"name":"msgSender","type":"address","internalType":"address"},{"name":"_message","type":"bytes","internalType":"bytes"}],"outputs":[],"stateMutability":"nonpayable"},{"type":"function","name":"currentTicketNumber","inputs":[],"outputs":[{"name":"","type":"uint256","internalType":"uint256"}],"stateMutability":"view"},{"type":"function","name":"getCurrentStateRoot","inputs":[],"outputs":[{"name":"currentStateRoot","type":"bytes32","internalType":"bytes32"}],"stateMutability":"view"},{"type":"function","name":"getStateRootAtHeight","inputs":[{"name":"_height","type":"uint256","internalType":"uint256"}],"outputs":[{"name":"stateRoot","type":"bytes32","internalType":"bytes32"}],"stateMutability":"view"},{"type":"function","name":"hookContract","inputs":[],"outputs":[{"name":"","type":"address","internalType":"contract IBaseHook"}],"stateMutability":"view"},{"type":"function","name":"initialize","inputs":[{"name":"_appId","type":"uint256","internalType":"uint256"},{"name":"_operator","type":"address","internalType":"address"}],"outputs":[],"stateMutability":"nonpayable"},{"type":"function","name":"latestSequenceNumber","inputs":[],"outputs":[{"name":"","type":"uint256","internalType":"uint256"}],"stateMutability":"view"},{"type":"function","name":"operator","inputs":[],"outputs":[{"name":"","type":"address","internalType":"address"}],"stateMutability":"view"},{"type":"function","name":"registerStf","inputs":[{"name":"_appData","type":"tuple","internalType":"struct IAppInbox.AppData","components":[{"name":"stateMachineHash","type":"bytes32","internalType":"bytes32"},{"name":"genesisStateHash","type":"bytes32","internalType":"bytes32"}]},{"name":"_operatorSignature","type":"bytes","internalType":"bytes"}],"outputs":[],"stateMutability":"nonpayable"},{"type":"function","name":"setBridgeContract","inputs":[{"name":"_bridgeContract","type":"address","internalType":"address"}],"outputs":[],"stateMutability":"nonpayable"},{"type":"function","name":"setHookContract","inputs":[{"name":"_hookContract","type":"address","internalType":"contract IBaseHook"}],"outputs":[],"stateMutability":"nonpayable"},{"type":"function","name":"submit","inputs":[{"name":"_batch","type":"tuple","internalType":"struct IAppInbox.Batch","components":[{"name":"appId","type":"uint256","internalType":"uint256"},{"name":"blocksRoot","type":"bytes32","internalType":"bytes32"},{"name":"sequenceNumber","type":"uint32","internalType":"uint32"},{"name":"width","type":"uint32","internalType":"uint32"},{"name":"batchRoot","type":"bytes32","internalType":"bytes32"},{"name":"signature","type":"bytes","internalType":"bytes"},{"name":"daPointer","type":"tuple","internalType":"struct IAppInbox.BlobPointer","components":[{"name":"blobID","type":"bytes","internalType":"bytes"},{"name":"da","type":"uint8","internalType":"enum IAppInbox.DAProvider"}]},{"name":"firstBlock","type":"tuple","internalType":"struct IAppInbox.BlockHeader","components":[{"name":"blockHash","type":"bytes32","internalType":"bytes32"},{"name":"parentHash","type":"bytes32","internalType":"bytes32"},{"name":"actionRoot","type":"bytes32","internalType":"bytes32"},{"name":"acknowledgementRoot","type":"bytes32","internalType":"bytes32"},{"name":"stateRoot","type":"bytes32","internalType":"bytes32"},{"name":"hooksRoot","type":"bytes32","internalType":"bytes32"},{"name":"height","type":"uint256","internalType":"uint256"},{"name":"timestamp","type":"uint256","internalType":"uint256"},{"name":"vulcanLeaderSignature","type":"bytes","internalType":"bytes"},{"name":"operatorSignature","type":"bytes","internalType":"bytes"},{"name":"builderSignature","type":"bytes","internalType":"bytes"},{"name":"executionStatus","type":"uint256","internalType":"uint256"}]},{"name":"lastBlock","type":"tuple","internalType":"struct IAppInbox.BlockHeader","components":[{"name":"blockHash","type":"bytes32","internalType":"bytes32"},{"name":"parentHash","type":"bytes32","internalType":"bytes32"},{"name":"actionRoot","type":"bytes32","internalType":"bytes32"},{"name":"acknowledgementRoot","type":"bytes32","internalType":"bytes32"},{"name":"stateRoot","type":"bytes32","internalType":"bytes32"},{"name":"hooksRoot","type":"bytes32","internalType":"bytes32"},{"name":"height","type":"uint256","internalType":"uint256"},{"name":"timestamp","type":"uint256","internalType":"uint256"},{"name":"vulcanLeaderSignature","type":"bytes","internalType":"bytes"},{"name":"operatorSignature","type":"bytes","internalType":"bytes"},{"name":"builderSignature","type":"bytes","internalType":"bytes"},{"name":"executionStatus","type":"uint256","internalType":"uint256"}]}]},{"name":"_submitter","type":"address","internalType":"address"}],"outputs":[],"stateMutability":"nonpayable"},{"type":"function","name":"transferOwnership","inputs":[{"name":"_newOperator","type":"address","internalType":"address"}],"outputs":[],"stateMutability":"nonpayable"},{"type":"event","name":"BatchSubmitted","inputs":[{"name":"batchHeight","type":"uint256","indexed":true,"internalType":"uint256"},{"name":"batchRoot","type":"bytes32","indexed":true,"internalType":"bytes32"},{"name":"lastBlockHeight","type":"uint256","indexed":true,"internalType":"uint256"},{"name":"firstBlockHeight","type":"uint256","indexed":false,"internalType":"uint256"},{"name":"stateRoot","type":"bytes32","indexed":false,"internalType":"bytes32"}],"anonymous":false},{"type":"event","name":"OwnershipTransferred","inputs":[{"name":"previousOwner","type":"address","indexed":true,"internalType":"address"},{"name":"newOwner","type":"address","indexed":true,"internalType":"address"}],"anonymous":false},{"type":"event","name":"RegisteredSTF","inputs":[{"name":"stateMachineHash","type":"bytes32","indexed":false,"internalType":"bytes32"},{"name":"genesisStateHash","type":"bytes32","indexed":false,"internalType":"bytes32"},{"name":"operator","type":"address","indexed":false,"internalType":"address"}],"anonymous":false},{"type":"event","name":"TicketCreated","inputs":[{"name":"ticketNumber","type":"uint256","indexed":true,"internalType":"uint256"},{"name":"sender","type":"address","indexed":true,"internalType":"address"},{"name":"identifier","type":"bytes32","indexed":true,"internalType":"bytes32"},{"name":"message","type":"bytes","indexed":false,"internalType":"bytes"}],"anonymous":false}],"bytecode":{"object":"0x6080604052348015600f57600080fd5b5060276002805460ff60a01b1916600160a01b179055565b611d87806100366000396000f3fe608060405234801561001057600080fd5b506004361061010b5760003560e01c80638aebd348116100a2578063c465a0cf11610071578063c465a0cf14610236578063cd59658314610259578063da35a26f1461026c578063f1c046161461027f578063f2fde38b1461028857600080fd5b80638aebd348146101cb578063974af738146101ee578063a631c36014610208578063a67adc501461021157600080fd5b806356fcf123116100de57806356fcf1231461015e578063570ca7351461017157806372cb4075146101a157806380afdea8146101b457600080fd5b80630b26cf6614610110578063156087cb146101255780632fe6ad3e1461013857806330b7f6341461014b575b600080fd5b61012361011e3660046113aa565b61029b565b005b610123610133366004611493565b6102f0565b6101236101463660046113aa565b610393565b6101236101593660046114ec565b6103df565b61012361016c366004611544565b610785565b600354610184906001600160a01b031681565b6040516001600160a01b0390911681526020015b60405180910390f35b600254610184906001600160a01b031681565b6101bd60005481565b604051908152602001610198565b6008546009546101d9919082565b60408051928352602083019190915201610198565b6005546000908152600760205260409020600601546101bd565b6101bd60065481565b61022461021f3660046115af565b6108fb565b60405161019896959493929190611650565b6101bd6102443660046115af565b60009081526007602052604090206006015490565b600154610184906001600160a01b031681565b61012361027a3660046116ac565b6109fd565b6101bd60055481565b6101236102963660046113aa565b610a93565b6003546001600160a01b031633146102ce5760405162461bcd60e51b81526004016102c5906116d1565b60405180910390fd5b600180546001600160a01b0319166001600160a01b0392909216919091179055565b6001546001600160a01b031633146103375760405162461bcd60e51b815260206004820152600a6024820152694e4f545f42524944474560b01b60448201526064016102c5565b82826001600160a01b03166006600081546103519061170a565b9190508190557fec0eae5189d33f7bbeb17e51de8eb8a908904c58417c749e4f7bb340e5263d3f846040516103869190611723565b60405180910390a4505050565b6003546001600160a01b031633146103bd5760405162461bcd60e51b81526004016102c5906116d1565b600280546001600160a01b0319166001600160a01b0392909216919091179055565b60048054604080516303e21fa960e61b815290516001600160a01b039092169263f887ea409282820192602092908290030181865afa158015610426573d6000803e3d6000fd5b505050506040513d601f19601f8201168201806040525081019061044a9190611736565b6001600160a01b0316336001600160a01b0316146104975760405162461bcd60e51b815260206004820152600a6024820152692727aa2fa927aaaa22a960b11b60448201526064016102c5565b6104a5610100830183611753565b60c001356104b660e0840184611753565b60c0013511156105165760405162461bcd60e51b815260206004820152602560248201527f53544152545f424c4f434b5f4845494748545f455843454544535f4c4153545f604482015264424c4f434b60d81b60648201526084016102c5565b610524610100830183611753565b60e00135828060e001906105389190611753565b60e00135111561059b5760405162461bcd60e51b815260206004820152602860248201527f53544152545f424c4f434b5f54494d455354414d505f455843454544535f4c4160448201526753545f424c4f434b60c01b60648201526084016102c5565b6105a58282610bdd565b6105bd6105b560e0840184611753565b828435610d2a565b6105ce6105b5610100840184611753565b600554156106b7576005546000908152600760205260409020600401546105f6906001611774565b61060360e0840184611753565b60c001351461064a5760405162461bcd60e51b8152602060048201526013602482015272494e56414c49445f53544152545f424c4f434b60681b60448201526064016102c5565b600580546000908152600760205260409020015461066b60e0840184611753565b60200135146106b25760405162461bcd60e51b81526020600482015260136024820152720929cac82989288bea082a48a9ca8be9082a69606b1b60448201526064016102c5565b610777565b6106c460e0830183611753565b60c001356001146107175760405162461bcd60e51b815260206004820152601760248201527f53544152545f424c4f434b5f4d5553545f42455f4f4e4500000000000000000060448201526064016102c5565b600061072660e0840184611753565b60200135146107775760405162461bcd60e51b815260206004820152601860248201527f504152454e545f484153485f4d5553545f42455f5a45524f000000000000000060448201526064016102c5565b6107818282610eec565b5050565b6003546001600160a01b031633146107af5760405162461bcd60e51b81526004016102c5906116d1565b6000826000015183602001516040516020016107d5929190918252602082015260400190565b604051602081830303815290604052805190602001209050610800336107fa8361108a565b846110bd565b61084c5760405162461bcd60e51b815260206004820152601a60248201527f494e56414c49445f4f50455241544f525f5349474e415455524500000000000060448201526064016102c5565b82516008819055602080850151600981905560408051938452918301523382820152517facd7d38337678a2901d14c1588fa3783f8d8e5ba568148b63a93694bd626194a9181900360600190a16004805460005460405163615fe39560e11b8152928301526001600160a01b03169063c2bfc72a90602401600060405180830381600087803b1580156108de57600080fd5b505af11580156108f2573d6000803e3d6000fd5b50505050505050565b600760205260009081526040908190208054600182015483518085019094526002830180549294919392829082906109329061178d565b80601f016020809104026020016040519081016040528092919081815260200182805461095e9061178d565b80156109ab5780601f10610980576101008083540402835291602001916109ab565b820191906000526020600020905b81548152906001019060200180831161098e57829003601f168201915b505050918352505060018281015460209092019160ff16908111156109d2576109d2611618565b60018111156109e3576109e3611618565b905250600482015460058301546006909301549192909186565b600254600160a01b900460ff1615610a4d5760405162461bcd60e51b815260206004820152601360248201527210531491505116481253925512505312569151606a1b60448201526064016102c5565b6000829055600380546001600160a01b0383166001600160a01b03199182161790915560048054909116331790556107816002805460ff60a01b1916600160a01b179055565b6003546001600160a01b03163314610abd5760405162461bcd60e51b81526004016102c5906116d1565b60055415610b245760405162461bcd60e51b815260206004820152602e60248201527f43414e4e4f545f4348414e47455f4f50455241544f525f41465445525f42415460448201526d10d21154d7d4d55093525515115160921b60648201526084016102c5565b6004805460005460405163cd74e53160e01b8152928301523360248301526001600160a01b038381166044840152169063cd74e53190606401600060405180830381600087803b158015610b7757600080fd5b505af1158015610b8b573d6000803e3d6000fd5b5050600380546001600160a01b0319166001600160a01b0385169081179091556040519092503391507f8be0079c531659141344cd1fd0a4f28419497f9722a3daafe3b4186f6b6457e090600090a350565b60006020830135610bf460608501604086016117e0565b610c0460808601606087016117e0565b60408051602081019490945263ffffffff9283169084015216606082015260800160405160208183030381529060405280519060200120905082608001358114610c855760405162461bcd60e51b81526020600482015260126024820152711253959053125117d0905510d217d493d3d560721b60448201526064016102c5565b610cd982610c928361108a565b610c9f60a08701876117fb565b8080601f0160208091040260200160405190810160405280939291908181526020018383808284376000920191909152506110bd92505050565b610d255760405162461bcd60e51b815260206004820152601c60248201527f494e56414c49445f42415443485f524f4f545f5349474e41545552450000000060448201526064016102c5565b505050565b6000602084013560408501356060860135608087013560a088013560c089013560e08a0135886101608c0135610d646101408e018e6117fb565b604051602001610d7e9b9a99989796959493929190611872565b60405160208183030381529060405280519060200120905083600001358114610de95760405162461bcd60e51b815260206004820152601760248201527f424c4f434b5f484153485f4d5553545f42455f53414d4500000000000000000060448201526064016102c5565b600354610e10906001600160a01b0316610e028361108a565b610c9f6101208801886117fb565b610e5c5760405162461bcd60e51b815260206004820152601a60248201527f494e56414c49445f4f50455241544f525f5349474e415455524500000000000060448201526064016102c5565b610e9a83610e8c610e716101208801886117fb565b604051610e7f9291906118d1565b604051809103902061108a565b610c9f6101008801886117fb565b610ee65760405162461bcd60e51b815260206004820152601f60248201527f494e56414c49445f56554c43414e5f4c45414445525f5349474e41545552450060448201526064016102c5565b50505050565b6005805483918391906000610f008361170a565b91905055506040518060c001604052808560800135815260200185602001358152602001858060c00190610f3491906118e1565b610f3d90611906565b8152602001610f50610100870187611753565b60c001358152602001610f67610100870187611753565b358152602001610f7b610100870187611753565b6080013590526005546000908152600760209081526040918290208351815590830151600182015590820151805160028301908190610fba90826119ad565b50602082015160018083018054909160ff19909116908381811115610fe157610fe1611618565b02179055505050606082015160048201556080820151600582015560a090910151600690910155611016610100850185611753565b60c0013584608001356005547f5d92b5a8163c2bb63ae6fa4560524ab01b54b45ecaeaa4857af2488f631b7f93878060e001906110539190611753565b60c0013561106460e08a018a611753565b604080519283526080919091013560208301520160405180910390a4610ee68282611121565b7f19457468657265756d205369676e6564204d6573736167653a0a3332000000006000908152601c91909152603c902090565b60008060006110cc858561119b565b50909250905060008160038111156110e6576110e6611618565b1480156111045750856001600160a01b0316826001600160a01b0316145b8061111557506111158686866111e8565b925050505b9392505050565b6002546001600160a01b0316611135575050565b600254604051639dd2027760e01b81526001600160a01b0390911690639dd20277906111679085908590600401611c00565b600060405180830381600087803b15801561118157600080fd5b505af1925050508015611192575060015b15610781575050565b600080600083516041036111d55760208401516040850151606086015160001a6111c7888285856112c3565b9550955095505050506111e1565b50508151600091506002905b9250925092565b6000806000856001600160a01b0316858560405160240161120a929190611d05565b60408051601f198184030181529181526020820180516001600160e01b0316630b135d3f60e11b1790525161123f9190611d26565b600060405180830381855afa9150503d806000811461127a576040519150601f19603f3d011682016040523d82523d6000602084013e61127f565b606091505b509150915081801561129357506020815110155b801561111557508051630b135d3f60e11b906112b89083016020908101908401611d38565b149695505050505050565b600080807f7fffffffffffffffffffffffffffffff5d576e7357a4501ddfe92f46681b20a08411156112fe5750600091506003905082611388565b604080516000808252602082018084528a905260ff891692820192909252606081018790526080810186905260019060a0016020604051602081039080840390855afa158015611352573d6000803e3d6000fd5b5050604051601f1901519150506001600160a01b03811661137e57506000925060019150829050611388565b9250600091508190505b9450945094915050565b6001600160a01b03811681146113a757600080fd5b50565b6000602082840312156113bc57600080fd5b813561111a81611392565b634e487b7160e01b600052604160045260246000fd5b6040805190810167ffffffffffffffff81118282101715611400576114006113c7565b60405290565b600082601f83011261141757600080fd5b813567ffffffffffffffff80821115611432576114326113c7565b604051601f8301601f19908116603f0116810190828211818310171561145a5761145a6113c7565b8160405283815286602085880101111561147357600080fd5b836020870160208301376000602085830101528094505050505092915050565b6000806000606084860312156114a857600080fd5b8335925060208401356114ba81611392565b9150604084013567ffffffffffffffff8111156114d657600080fd5b6114e286828701611406565b9150509250925092565b600080604083850312156114ff57600080fd5b823567ffffffffffffffff81111561151657600080fd5b8301610120818603121561152957600080fd5b9150602083013561153981611392565b809150509250929050565b600080828403606081121561155857600080fd5b604081121561156657600080fd5b5061156f6113dd565b83358152602080850135908201529150604083013567ffffffffffffffff81111561159957600080fd5b6115a585828601611406565b9150509250929050565b6000602082840312156115c157600080fd5b5035919050565b60005b838110156115e35781810151838201526020016115cb565b50506000910152565b600081518084526116048160208601602086016115c8565b601f01601f19169290920160200192915050565b634e487b7160e01b600052602160045260246000fd5b6002811061164c57634e487b7160e01b600052602160045260246000fd5b9052565b86815285602082015260c0604082015260008551604060c08401526116796101008401826115ec565b9050602087015161168d60e085018261162e565b50606083019590955250608081019290925260a0909101529392505050565b600080604083850312156116bf57600080fd5b82359150602083013561153981611392565b6020808252600990820152682727aa2fa7aba722a960b91b604082015260600190565b634e487b7160e01b600052601160045260246000fd5b60006001820161171c5761171c6116f4565b5060010190565b60208152600061111a60208301846115ec565b60006020828403121561174857600080fd5b815161111a81611392565b6000823561017e1983360301811261176a57600080fd5b9190910192915050565b80820180821115611787576117876116f4565b92915050565b600181811c908216806117a157607f821691505b6020821081036117c157634e487b7160e01b600052602260045260246000fd5b50919050565b803563ffffffff811681146117db57600080fd5b919050565b6000602082840312156117f257600080fd5b61111a826117c7565b6000808335601e1984360301811261181257600080fd5b83018035915067ffffffffffffffff82111561182d57600080fd5b60200191503681900382131561184257600080fd5b9250929050565b81835281816020850137506000828201602090810191909152601f909101601f19169091010190565b60006101408d83528c60208401528b60408401528a60608401528960808401528860a08401528760c08401528660e084015285610100840152806101208401526118bf8184018587611849565b9e9d5050505050505050505050505050565b8183823760009101908152919050565b60008235603e1983360301811261176a57600080fd5b8035600281106117db57600080fd5b60006040823603121561191857600080fd5b6119206113dd565b823567ffffffffffffffff81111561193757600080fd5b61194336828601611406565b825250611952602084016118f7565b602082015292915050565b601f821115610d25576000816000526020600020601f850160051c810160208610156119865750805b601f850160051c820191505b818110156119a557828155600101611992565b505050505050565b815167ffffffffffffffff8111156119c7576119c76113c7565b6119db816119d5845461178d565b8461195d565b602080601f831160018114611a1057600084156119f85750858301515b600019600386901b1c1916600185901b1785556119a5565b600085815260208120601f198616915b82811015611a3f57888601518255948401946001909101908401611a20565b5085821015611a5d5787850151600019600388901b60f8161c191681555b5050505050600190811b01905550565b6000808335601e19843603018112611a8457600080fd5b830160208101925035905067ffffffffffffffff811115611aa457600080fd5b80360382131561184257600080fd5b60008235603e19833603018112611ac957600080fd5b90910192915050565b6000611ade8283611a6d565b60408552611af0604086018284611849565b915050611aff602084016118f7565b611b0c602086018261162e565b509392505050565b6000823561017e19833603018112611ac957600080fd5b6000610180823584526020830135602085015260408301356040850152606083013560608501526080830135608085015260a083013560a085015260c083013560c085015260e083013560e0850152610100611b8981850185611a6d565b8383880152611b9b8488018284611849565b9350505050610120611baf81850185611a6d565b86840383880152611bc1848284611849565b9350505050610140611bd581850185611a6d565b86840383880152611be7848284611849565b6101609687013597909601969096525092949350505050565b6040815282356040820152602083013560608201526000611c23604085016117c7565b63ffffffff166080830152611c3a606085016117c7565b63ffffffff811660a084015250608084013560c0830152611c5e60a0850185611a6d565b6101208060e0860152611c7661016086018385611849565b9250611c8560c0880188611ab3565b9150603f19610100818786030181880152611ca08585611ad2565b9450611caf60e08a018a611b14565b9350818786030183880152611cc48585611b2b565b9450611cd2818a018a611b14565b93505080868503016101408701525050611cec8282611b2b565b9250505061111a60208301846001600160a01b03169052565b828152604060208201526000611d1e60408301846115ec565b949350505050565b6000825161176a8184602087016115c8565b600060208284031215611d4a57600080fd5b505191905056fea264697066735822122060f0d41068aafa1116bb7177900876d60c960a5f7b4e70c1c59096973b3b0f1e64736f6c63430008190033","linkReferences":{}},"methodIdentifiers":{"appData()":"8aebd348","appId()":"80afdea8","batchBySequenceNumber(uint256)":"a67adc50","bridgeContract()":"cd596583","createTicket(bytes32,address,bytes)":"156087cb","currentTicketNumber()":"a631c360","getCurrentStateRoot()":"974af738","getStateRootAtHeight(uint256)":"c465a0cf","hookContract()":"72cb4075","initialize(uint256,address)":"da35a26f","latestSequenceNumber()":"f1c04616","operator()":"570ca735","registerStf((bytes32,bytes32),bytes)":"56fcf123","setBridgeContract(address)":"0b26cf66","setHookContract(address)":"2fe6ad3e","submit((uint256,bytes32,uint32,uint32,bytes32,bytes,(bytes,uint8),(bytes32,bytes32,bytes32,bytes32,bytes32,bytes32,uint256,uint256,bytes,bytes,bytes,uint256),(bytes32,bytes32,bytes32,bytes32,bytes32,bytes32,uint256,uint256,bytes,bytes,bytes,uint256)),address)":"30b7f634","transferOwnership(address)":"f2fde38b"},"id":48}